:020000040000FA
:100000000C945D000C9485000C9485000C94850084
:100010000C9485000C9485000C9485000C9485004C
:100020000C94B3080C9485000C9485000C94850006
:100030000C9485000C9485000C9485000C9485002C
:100040000C94F2060C9485000C9462070C943C0707
:100050000C9485000C9485000C9485000C9485000C
:100060000C9494070C948500000000080002010025
:100070000003040700000000000000000000000072
:10008000250028002B0000000000240027002A0083
:10009000040404040404040402020202020203032E
:1000A0000303030301020408102040800102040836
:1000B0001020010204081020B30911241FBECFEF45
:1000C000D8E0DEBFCDBF24E0A4E1B2E001C01D92C4
:1000D000AF3DB207E1F712E0A0E0B1E0EAE3F7E2FA
:1000E00002C005900D92A431B107D9F710E0CDE51B
:1000F000D0E004C02197FE010E949513CC35D107B2
:10010000C9F70E94090A0C949B130C940000E0911B
:100110009804F0919904238534852817390728F429
:100120008091940481608093940408950F931F93A9
:10013000CF93DF934091DD028091950410E0481742
:1001400008F068C0142F11700091DC02011153C037
:10015000E0919804F0919904842F90E0880F991F02
:10016000E80FF91F0384F485E02D2CEE3FEF1123F7
:1001700011F024E130E0C091DA02D091DB022C0FC3
:100180003D1FC90163E470E00E948113E617F70781
:1001900060F0C90168E270E00E9481136F5F7F4FD9
:1001A00081E090E06E177F0710F52C0F3D1FC9010D
:1001B00063E470E00E948113E617F70750F0C9016D
:1001C00068E270E00E9481136F5F7F4F6E177F07B8
:1001D00060F42C0F3D1FC90163E470E00E9481139D
:1001E000E617F707E8F41FEF15C082E090E0909360
:1001F000D9028093D8020F5F0093DC028091D8026D
:100200009091D9020817190628F01092DC024F5F6E
:100210004093DD02812FDF91CF911F910F910895BF
:10022000C90168E270E00E9481136F5F7F4F6E1713
:100230007F07C8F283E090E0DACF90E0FC01E85954
:10024000FF4F2491FC01EC55FF4F3491FC01E05726
:10025000FF4FE491EE23C9F0222339F0233001F15E
:10026000A8F4213019F1223029F1F0E0EE0FFF1F40
:10027000E458FF4FA591B4918FB7F894EC916111B8
:1002800026C030953E233C938FBF08952730A9F0B8
:100290002830C9F0243049F7809180008F7D03C059
:1002A000809180008F7780938000DFCF84B58F7737
:1002B00084BDDBCF84B58F7DFBCF8091B0008F777D
:1002C0008093B000D2CF8091B0008F7DF9CF3E2BCC
:1002D000DACF3FB7F8948091840290918502A09183
:1002E0008602B091870226B5A89B05C02F3F19F062
:1002F0000196A11DB11D3FBFBA2FA92F982F8827A6
:10030000BC01CD01620F711D811D911D42E0660F80
:10031000771F881F991F4A95D1F708958F929F9252
:10032000AF92BF92CF92DF92EF92FF926B017C016E
:100330000E9469014B015C01C114D104E104F10484
:10034000B9F00E946901681979098A099B09683E18
:1003500073408105910580F321E0C21AD108E108BC
:10036000F10888EE880E83E0981EA11CB11CE4CF32
:10037000FF90EF90DF90CF90BF90AF909F908F90C5
:10038000089508950895AF92BF92CF92DF92EF92B1
:10039000FF920F931F93CF93DF936C017B018B012F
:1003A000040F151FEB015E01AE18BF08C017D1077F
:1003B00059F06991D601ED91FC910190F081E02D09
:1003C000C6010995892B79F7C501DF91CF911F915E
:1003D0000F91FF90EF90DF90CF90BF90AF90089576
:1003E000FC01538D448D252F30E0842F90E0821B3B
:1003F000930B541710F0CF96089501970895FC01C0
:10040000918D828D981761F0A28DAE0FBF2FB11D17
:100410005D968C91928D9F5F9F73928F90E008956F
:100420008FEF9FEF0895FC01918D828D981731F029
:10043000828DE80FF11D858D90E008958FEF9FEF7D
:100440000895FC01918D228D892F90E0805C9F4F53
:10045000821B91098F73992708958EED92E00E9477
:10046000210221E0892B09F420E0822F089580E009
:1004700090E0892B29F00E942D0281110C9400003C
:100480000895FC01A48DA80FB92FB11DA35ABF4F29
:100490002C91848D90E001968F739927848FA68983
:1004A000B7892C93A089B1898C91837080648C93D7
:1004B000938D848D981306C00288F389E02D808186
:1004C0008F7D80830895EF92FF920F931F93CF93B8
:1004D000DF93EC0181E0888F9B8D8C8D98131AC07F
:1004E000E889F989808185FF15C09FB7F894EE8966
:1004F000FF896083E889F9898081837080648083C3
:100500009FBF81E090E0DF91CF911F910F91FF900D
:10051000EF900895F62E0B8D10E00F5F1F4F0F73B5
:100520001127E02E8C8D8E110CC00FB607FCFACF70
:10053000E889F989808185FFF5CFCE010E944102CB
:10054000F1CFEB8DEC0FFD2FF11DE35AFF4FF08241
:100550009FB7F8940B8FEA89FB8980818062CFCFA7
:10056000CF93DF93EC01888D8823B9F0AA89BB89EA
:10057000E889F9898C9185FD03C0808186FD0DC0D5
:100580000FB607FCF7CF8C9185FFF2CF808185FFF6
:10059000EDCFCE010E944102E9CFDF91CF910895C6
:1005A00020915502260F3327331F21323105ECF4F9
:1005B0002091AE02FC0190E080E0243069F082E0FE
:1005C0000895A09155022191AC014B5C5D4FA40FA1
:1005D000B52FB11D2C930196861798F38091550283
:1005E000680F6093550280E0089581E008951092AD
:1005F000AE0281E08093AD021092880261E082E158
:100600000E941D0161E083E10E941D01E9EBF0E021
:1006100080818E7F808380818D7F808388E480933A
:10062000B80085E48093BC000895CF93DF9391E0F8
:10063000909334028823B9F0C091B800D091BA00E9
:100640008091BC008A7B8093BC0060E082E10E94C4
:100650001D0160E083E10E941D010E94F702D0931A
:10066000BA00C093B800DF91CF910895CF92DF9286
:10067000EF92FF920F931F93CF93DF93D091D70206
:1006800081E0D13208F09CC0C091D6020E9469017D
:100690006B017C018091AE0281116CC082E080937D
:1006A000AE0281E08093AD028FEF8093AC02109296
:1006B000AB02D093AA02A6EBB2E0EAE8F2E080E057
:1006C000D8138DC01092890280918902CC0FC82B5B
:1006D000C093890280918802813009F084C0109211
:1006E00088020E9469016B017C01809189028093DC
:1006F000BB008091B0029091B102A091B202B09182
:10070000B302892B8A2B8B2BA1F00E9469010091E7
:10071000B0021091B1022091B2023091B3026C1973
:100720007D098E099F09061717072807390708F45E
:1007300042C08091BC0083FDD8CF85EC8093BC0083
:100740000E9469016B017C018091AE02823009F444
:100750004CC08091AC028F3F09F469C08091AC021B
:10076000803209F466C08091AC02803309F463C022
:1007700084E026C08091B0029091B102A091B202B3
:10078000B091B302892B8A2B8B2B09F483CF0E9463
:1007900069010091B0021091B1022091B202309132
:1007A000B3026C197D098E099F09061717072807E0
:1007B000390708F06FCF8091AF020E94150385E0E2
:1007C0001092B5021092D7021092B402DF91CF912D
:1007D0001F910F91FF90EF90DF90CF9008959D9122
:1007E00091938F5F6DCF85EEA9CF8091B0029091EC
:1007F000B102A091B202B091B302892B8A2B8B2B4C
:1008000009F4A2CF0E9469010091B0021091B102D7
:100810002091B2023091B3026C197D098E099F09B3
:10082000061717072807390708F08ECFC4CF80E0D6
:10083000C7CF82E0C5CF83E0C3CF0895E0917D02AA
:1008400080917C02E81730F4F0E0EC5EFD4F80818F
:1008500090E008958FEF9FEF089590917D02809131
:100860007C022FEF3FEF981748F4E92FF0E0EC5EA1
:10087000FD4F208130E09F5F90937D02C901089574
:1008800080917C0290917D02891B990B0895CF92F3
:10089000DF92EF92FF920F931F93CF93DF937C0130
:1008A000CB018A012091B402222389F0EB016B0174
:1008B000C40ED51ECC15DD0569F06991D701ED9107
:1008C000FC910190F081E02DC7010995F3CF642FD1
:1008D0000E94D002C801DF91CF911F910F91FF902C
:1008E000EF90DF90CF900895CF93DF931F92CDB715
:1008F000DEB769832091B4022223F9F02091D70258
:10090000203258F021E030E0FC013383228390E074
:1009100080E00F90DF91CF9108958091B502E82F8C
:10092000F0E0EA54FD4F998190838F5F8093B50288
:100930008093D70281E090E0ECCF61E0CE01019698
:100940000E94D002F7CF682F8BE793E00C947404D9
:1009500090E080E00895FC019B0124513109C90118
:1009600063E470E00E948113E617F70758F0C901AD
:1009700068E270E00E9481136F5F7F4F81E06E1725
:100980007F0708F480E008952F923F924F925F9284
:100990006F927F928F929F92AF92BF92CF92DF928F
:1009A000EF92FF920F931F93CF93DF9300D000D06D
:1009B00000D0CDB7DEB7382E6D835A013C832B8330
:1009C00048012E2C9A012C5E3F4FC90163E470E070
:1009D0000E9481138B01C90168E270E00E948113BB
:1009E0009B012F5F3F4F3A8329835D81452F50E064
:1009F000440F551F455F5F4F809198049091990473
:100A0000480F591F5E834D83412C512C3201439472
:100A1000C12CD12C76013320B9F18B819C81A81691
:100A2000B906E1F4B401ED81FE81828193810E94D7
:100A3000AB04222011F1CC0CDD1CEE1CFF1C882322
:100A400011F06894C0F8440C551C661C771C3A944D
:100A50008D819E8104969E838D83DDCFED81FE8105
:100A6000208131812017310730F081E049815A819E
:100A700042175307F0F680E0DCCF882321F3C42827
:100A8000D528E628F728DFCFC0927A04D0927B04DD
:100A9000E0927C04F0927D0481E026960FB6F894F3
:100AA000DEBF0FBECDBFDF91CF911F910F91FF90A1
:100AB000EF90DF90CF90BF90AF909F908F907F90FE
:100AC0006F905F904F903F902F900895EF920F930B
:100AD0001F93FC01862F642FEE24E39497859111D8
:100AE00001C0E12C0185128523853485478150851D
:100AF0000E94C4041F910F91EF9008950F931F93CC
:100B0000CF93DF93EC01E0919804F091990405856F
:100B100016852B813C812C5E3F4FC90163E470E058
:100B20000E94811306171707A0F0C90168E270E060
:100B30000E9481136F5F7F4F6017710750F06D81C6
:100B40007E8187859089DF91CF911F910F910C94C1
:100B5000AB0480E0DF91CF911F910F9108958091B8
:100B6000A504882319F060E00C941D012D980895C8
:100B7000882349F08091A504882319F061E00C9442
:100B80001D012D9A08950C94AF054F925F926F92BC
:100B90007F928F929F92AF92BF92CF92DF92EF920D
:100BA000FF92CF93DF93CDB7DEB72D970FB6F894B2
:100BB000DEBF0FBECDBF7C010E94690169837A83CD
:100BC0008B839C834B015C011D86B0E0A0E0970104
:100BD000AD0125523109410951092D833E834F83CF
:100BE00058879701AD0127503109410951092987DB
:100BF0003A874B875C87F89461E08091A7040E9454
:100C00001D018091AA049091AB048230910538F0C7
:100C1000880F991F880F991F05970197F1F760E0DA
:100C20008091A7040E941D0178943D85311107C071
:100C30008091A604823019F481E00E94B805809169
:100C4000A8049091A904880E991EA11CB11CF894C7
:100C50000E9469012B013C016B0149815A81C41A30
:100C6000D50AF12CE12C8D819E81AF81B885C81603
:100C7000D906EA06FB0634F08091A604823011F40E
:100C80000E94AF0529853A854B855C85C216D3063F
:100C9000E406F506B4F078942D960FB6F894DEBF0E
:100CA0000FBECDBFDF91CF91FF90EF90DF90CF903F
:100CB000BF90AF909F908F907F906F905F904F907C
:100CC000089531E03D87481459046A047B0408F410
:100CD000BFCF91CFCF92DF92EF92FF928AE190E067
:100CE0009093A9048093A80485E090E09093AB04CE
:100CF0008093AA048091A70490E0FC01EC55FF4F7B
:100D0000249180579F4FFC018491882399F090E0B3
:100D1000880F991FFC01EA57FF4FA591B491FC0180
:100D2000E458FF4F859194918FB7F894EC91E22BA2
:100D3000EC938FBF80E093E20E94C5050E94690199
:100D40006B017C01F4E0CF1AD108E108F1080E94A0
:100D500069016C197D098E099F09603C7840810505
:100D60009105A8F380E392E0FF90EF90DF90CF90A1
:100D70000C94C50585ED8093BC008091B0029091E4
:100D8000B102A091B202B091B3020796A11DB11DAC
:100D900023E0B695A795979587952A95D1F7209149
:100DA000BC0024FD03C01092AE0208954091B00231
:100DB0005091B1026091B2027091B302452B462B63
:100DC000472B69F30097A105B10541F02AE22A9566
:100DD000F1F700C00197A109B109E1CF8091AF02FD
:100DE0000C9415031F920F920FB60F9211242F939C
:100DF0003F938F939F93AF93BF9380918002909185
:100E00008102A0918202B091830230917F0223E09F
:100E1000230F2D3758F50196A11DB11D20937F0298
:100E20008093800290938102A0938202B093830208
:100E30008091840290918502A0918602B0918702F0
:100E40000196A11DB11D8093840290938502A09309
:100E50008602B0938702BF91AF919F918F913F918E
:100E60002F910F900FBE0F901F90189526E8230F1B
:100E70000296A11DB11DD2CF1F920F920FB60F92F5
:100E800011242F933F934F935F936F937F938F938F
:100E90009F93AF93BF93EF93FF938EED92E00E94E9
:100EA0004102FF91EF91BF91AF919F918F917F91FF
:100EB0006F915F914F913F912F910F900FBE0F90C7
:100EC0001F9018951F920F920FB60F9211242F9317
:100ED0008F939F93EF93FF93E091EE02F091EF02D7
:100EE0008081E091F402F091F50282FD1BC09081B7
:100EF0008091F7028F5F8F732091F802821741F083
:100F0000E091F702F0E0E252FD4F958F8093F702F7
:100F1000FF91EF919F918F912F910F900FBE0F90A6
:100F20001F9018958081F4CF1F920F920FB60F92E9
:100F300011242F933F934F935F936F937F938F93DE
:100F40009F93AF93BF93EF93FF938091B900887FF6
:100F5000803609F44AC0F0F5883209F4A7C018F5C4
:100F6000803109F49BC0B8F4882309F4F9C08830B3
:100F700009F494C0FF91EF91BF91AF919F918F9130
:100F80007F916F915F914F913F912F910F900FBE85
:100F90000F901F901895883109F488C0803251F75E
:100FA0008093AC0214C0803409F49DC040F48033B7
:100FB000B9F38833F9F68093AC0285ECB0C0803584
:100FC00009F485C0883509F496C0883499F60E94E2
:100FD000BA06D0CF883909F48CC038F5883729F0A3
:100FE00050F4883611F0803729F683E08093AE0202
:100FF0001092770257C0883809F47BC0803919F005
:10100000803809F0B7CF80917702803208F071C044
:10101000E091770281E08E0F809377028091BB0090
:10102000F0E0E95AFD4F80833DC0803B39F0E0F4A9
:10103000803A09F479C0883A09F09CCF84E0809323
:10104000AE021092560210925502E0917A02F0918F
:101050007B0209958091550281110FC081E0809338
:1010600055021092350209C0803C09F4A6CF883C95
:1010700009F4A3CF883B09F07DCFE091560281E0CF
:101080008E0F80935602F0E0EB5CFD4F80818093E1
:10109000BB00909156028091550229C0809189022F
:1010A0008093BB0085EC8093BC0064CF9091AB0231
:1010B0008091AA02981758F5E091AB0281E08E0F5B
:1010C0008093AB02F0E0E657FD4F8081E9CFE091DD
:1010D000AB0281E08E0F8093AB028091BB00F0E009
:1010E000E657FD4F80839091AB028091AA0298173A
:1010F000C8F285E8D8CFE091AB0281E08E0F8093F3
:10110000AB028091BB00F0E0E657FD4F80838091F9
:10111000AD0281115CCF81E08093880284EA8093E4
:10112000BC001092AE0226CF85EC8093BC001092DA
:10113000AE0280917702803230F4E0917702F0E0E5
:10114000E95AFD4F10826091770270E0E0917802D9
:10115000F091790287E592E00995109277020ACF23
:101160001092AC0234CF1F920F920FB60F9211243F
:101170002F933F934F935F936F937F938F939F939F
:10118000AF93BF93CF93EF93FF93E0918903F091D7
:101190008A03C08180918B03C82380918C03909136
:1011A0008D03019649F080918C0390918D030196F7
:1011B00090938D0380938C038091870381111DC0D0
:1011C000C1116EC080918C0390918D03813A91057D
:1011D00078F01092900380918C0390918D039093FE
:1011E00093038093920381E080939103809387031C
:1011F00010928D0310928C0353C08091870381302D
:10120000A9F4CC2309F44CC0E09191038E0F809394
:10121000910380918C0390918D03F0E0EE0FFF1FFE
:10122000E957FC4F9487838782E0E0CF8091870362
:10123000823009F04FC0C11122C0E091910381E0DA
:10124000E03768F08093900383E080938703E09118
:101250008E03F0918F03309759F20995C9CF8E0F05
:101260008093910380918C0390918D03F0E0EE0FB9
:10127000FF1FE957FC4F9487838781E0B7CF8091A8
:101280008C0390918D03813A910550F083E0809317
:101290008703E0918E03F0918F03309709F0099551
:1012A0008091A604813021F4C11180E00E94B8052C
:1012B000FF91EF91CF91BF91AF919F918F917F91CE
:1012C0006F915F914F913F912F910F900FBE0F90B3
:1012D0001F90189580918703833011F7C111E0CFDB
:1012E00087CFEF92FF920F931F93CF93DF93EC0181
:1012F000F62F8A01790190E080E030E0E0E0DE0145
:10130000AE0FB11D2C91222341F0320F2E9F800D84
:10131000911D11241C92FE1315C0332399F0532FF5
:101320005695850F911D632F70E00E948113DE0199
:10133000A60FB11D3C93D8013C9131110EC06C93A6
:1013400090E080E0EF5FFE17D0F681E0DF91CF9173
:101350001F910F91FF90EF900895D7013C91332397
:1013600071F380E0F3CFEEEDF2E01382128288EEAB
:1013700093E0A0E0B0E084839583A683B78324EF55
:1013800031E03183208325EC30E03587248724EC5D
:1013900030E03787268720EC30E0318B208B21EC42
:1013A00030E0338B228B22EC30E0358B248B26EC23
:1013B00030E0378B268B118E128E138E148EEBE756
:1013C000F3E01382128284839583A683B78386E039
:1013D00092E091838083E7E8F3E0F093D304E09315
:1013E000D204118281E0848389E290E09383828336
:1013F0005098A5EAB4E01C921092A704F0939904C7
:10140000E093980482E0818384E0848352981C9264
:101410000895CF93DF93CDB7DEB7E7970FB6F89473
:10142000DEBF0FBECDBF789484B5826084BD84B525
:10143000816084BD85B5826085BD85B5816085BDCF
:1014400080916E00816080936E0010928100809187
:10145000810082608093810080918100816080930F
:101460008100809180008160809380008091B10034
:1014700084608093B1008091B00081608093B0005F
:1014800080917A00846080937A0080917A008260F3
:1014900080937A0080917A00816080937A008091B5
:1014A0007A00806880937A001092C10010927D02C9
:1014B00010927C021092B5021092D7020E94F7029D
:1014C00081EC91E090937B0280937A0282EC91E030
:1014D0009093790280937802E091EE02F091EF020E
:1014E00082E08083E091EA02F091EB021082E091C9
:1014F000EC02F091ED029FEC90831092F602E091E5
:10150000F202F091F30296E09083E091F002F09104
:10151000F102908190619083E091F002F091F102EC
:10152000908198609083E091F002F091F1029081B7
:1015300090689083E091F002F091F10290819F7D9C
:1015400090838093B0008093B10084E68093B300D1
:101550008093B4001092B20080918703833011F41D
:101560001092870384E0809370009E012F5F3F4FAD
:10157000390180918703833009F028C2809190035C
:10158000882309F460C080E480939404E091980477
:10159000F0919904838594859093970480939604A1
:1015A0002285209395041092730410927204109275
:1015B00077041092760410927504109274041092BD
:1015C0007A0410927B0410927C0410927D04109295
:1015D0009304109292048091940486FDEBC1822FB3
:1015E0008F7B843009F0BEC0858596858658910929
:1015F0008C35910508F0B6C087859089243009F0B4
:1016000049C08197489708F0ADC0818992890897B1
:10161000089708F0A7C081E08093940480919C040F
:1016200090919D0490937504809374048091A0041C
:101630009091A104909377048093760480919A040A
:1016400090919B0490C310929404809172049091A5
:10165000730490939B0480939A04809176049091F4
:101660007704B0E0A0E08093A0049093A104A0933D
:10167000A204B093A3048091740490917504B0E027
:10168000A0E080939C0490939D04A0939E04B0934B
:101690009F047CCF825491098F9708F063C043E088
:1016A00060E28CED91E00E946605882309F45AC03F
:1016B00020917A0490917B0460917C0480917D0458
:1016C000462F50E05093770440937604422F592FD1
:1016D0004E3E37E8530719F523E030E030937304AA
:1016E0002093720490E0909375048093740480E2D8
:1016F00090E090939304809392048AE795E00E948F
:1017000087008091940480FF31C129E030E030935C
:1017100073042093720480628093940427C190958F
:10172000291310C030E03093750420937404982F6F
:10173000909569130CC088E090E0909373048093B7
:101740007204D5CF5093750440937404F0CF2AE00F
:1017500030E0309373042093720460937604809396
:101760007704C5CF80919504843609F08FC088EC4A
:1017700091E00E947E05882309F488C043E060E17F
:1017800088EC91E00E946605882309F47FC0F09000
:101790007A040F2D10917B04BBE0CB2ED12C0230AC
:1017A00080E21807F9F0AEE0CA2ED12C0A3A9AE589
:1017B0001907C1F0FDE0CF2ED12C0435E2E31E075E
:1017C00089F0EFE0CE2ED12C0330F1E01F0751F06D
:1017D00080E1C82ED12C03322BEC120719F07CE0EB
:1017E000C72ED12C43E260E288EC91E00E946605AE
:1017F000882309F44BC0F12680917A0490917B04F0
:10180000A0917C04B0917D049C0164E036952795FD
:101810006A95E1F730937504209374042A2F30E021
:101820003093770420937604382F3A2739272F2DC9
:1018300022952F702F252F70482F4F70241719F0E5
:1018400024E020939404ECE0CE16D10449F42091D6
:1018500094042061209394041093790400937804F5
:101860003B1729F08091940484608093940480E372
:1018700090E09093930480939204D0927304C0926A
:1018800072048AE397E00E94870070C080919504FB
:10189000803209F0CEC041E06FE084EB91E00E941D
:1018A0006605882309F4C5C0E0919804F091990475
:1018B000E75BFF4F808191810497059708F0B9C0DD
:1018C00080917A0490917B04A0917C04B0917D0476
:1018D0009C012F713327309375042093740455E0D5
:1018E000B695A795979587955A95D1F7292F237087
:1018F000AC015527509377044093760440919604A9
:10190000509197044536544008F08BC03091A404A0
:101910003F5F3093A404323018F031E030939404E8
:1019200090FF14C030919404432F4260409394047C
:101930004091A0045091A1048095841719F036605D
:1019400030939404409376045093770421502230CE
:1019500008F06CC086E190E0909373048093720469
:101960008FE090E0909393048093920480917A04A6
:1019700090917B04A0917C04B0917D048115EFEFE0
:101980009E07E5E1AE07EAEEBE0709F437C608F0A8
:1019900016C681152FEF920726E4A20729EBB2079E
:1019A00009F430C608F0FAC581159F4FAE45B14A1B
:1019B00009F430C664EF71E080E090E00E948E018F
:1019C00080918703833011F41092870380917E0207
:1019D000813009F023C68093B4028093D60210921E
:1019E000B5021092D7026CE08BE793E00E9474047A
:1019F00081E090E00E94A3040E94360364E670E058
:101A000080E090E00E948E0180E090E0892B09F454
:101A1000B0CD0E942D02882309F4ABCD0E940000B6
:101A2000A8CD1092A404223009F494CF84E090E071
:101A300093CF80EA91E00E947E05882309F448C094
:101A4000809195048A3129F08A3219F0803209F0A8
:101A50003FC090E0BC016150710977FDBC017595F4
:101A6000679543E080EA91E00E946605882381F152
:101A700080917A0490917B04A0917C04B0917D04C4
:101A80009C012F773327309377042093760437E037
:101A9000B695A795979587953A95D1F79093750444
:101AA000809374042091950430E0C901019797FD5B
:101AB000C90195958795909393048093920487E14B
:101AC00090E0909373048093720480EE91E0DBCEFB
:101AD00081E08093DD0229E733E03093DB0220933D
:101AE000DA021092DC020E949600813009F060C098
:101AF000812C912C540110E0909195048091DD028D
:101B00008917E0F40E949600082F0E9496000111A8
:101B10000BC0813009F04CC0880C991CAA1CBB1C5E
:101B2000689480F81F5FE8CF013009F041C081114F
:101B30003FC0880C991CAA1CBB1CF4CF812F90E0DD
:101B4000909393048093920480927A0490927B0401
:101B5000A0927C04B0927D04882D8F7390E09093C6
:101B60007704809376049401B6E036952795BA956C
:101B7000E1F72F7133273093750420937404940197
:101B800022273071232B31F4805C9F4F9093770490
:101B90008093760480E893FC88E88093940481E144
:101BA00090E090937304809372048FEC99E06BCE75
:101BB000E0919804F09199048585968588974D97D2
:101BC00008F042C0878590890C970B97E8F583E071
:101BD0008093DD028CEB91E09093DB028093DA023C
:101BE0001092DC020E949600813071F50E949600EE
:101BF00081112AC0812C912C540110E09091950400
:101C00008091DD02891708F07CC00E949600F82EB2
:101C10001330B1F00E949600082F133021F40E9477
:101C20009600081311C031E0F31261C001110CC01D
:101C3000880C991CAA1CBB1C689480F81F5FDECF1F
:101C40000E949600F81631F3209195042C3311F080
:101C50002430B9F4E0919804F09199048585968533
:101C60008638910570F0833E910508F494C08E5833
:101C7000910968EB7BE007E010E08236910508F4FB
:101C80008EC080919504823209F4EDC0843209F04F
:101C90001EC184E191E00E947E05882309F417C1EA
:101CA00043E060E184E191E00E946605882309F445
:101CB0000EC180917A0490917B04A0917C04B09134
:101CC0007D04492F5A2F6B2F772750937704409329
:101CD00076049927909375048093740480E190E0D2
:101CE000909393048093920485E090E03CC0F110BF
:101CF000ABCF013009F0A8CF880C991CAA1CBB1CE3
:101D00009DCF812F90E090939304809392048092D2
:101D10007A0490927B04A0927C04B0927D04282DDA
:101D200030E0892D143220F580E8809394043093BC
:101D3000770420937604892D90E090937504809326
:101D40007404A0FE03C088E880939404153128F041
:101D50008091940480618093940483E79AE00E94C8
:101D6000870082E190E09093730480937204FECD2B
:101D700090E89093940497FE03C098E8909394049D
:101D800030937704209376048F7790E090937504D6
:101D900080937404E2CF68E670E106E010E0878586
:101DA0009089243061F44D97469708F06ACF818975
:101DB00092890797089708F064CF81E82DCC0E949C
:101DC000AB04882309F45DCF43E06CE180E091E04F
:101DD0000E946605882309F454CF80E88093940418
:101DE00040917A0450917B0460917C0470917D0451
:101DF000DB01CA0124E0B695A795979587952A95AA
:101E0000D1F79C019093770480937604DB01CA019B
:101E1000E4E1B695A79597958795EA95D1F79093C4
:101E200075048093740484E090E0E0E0F22FFF708A
:101E3000EF0FF4E036952795FA95E1F70197B1F7A2
:101E40004E274F70552766277727452B462B472B64
:101E500019F084E88093940410937304009372043F
:101E60008CE190E07FCD80919604909197048C3E18
:101E70009C4508F07BCDE0919804F091990485850C
:101E800096850897079708F071CDE35BFF4F808137
:101E900091810897079708F069CD81E080939404B9
:101EA00080919C0490919D04909375048093740498
:101EB0008091A0049091A10490937704809376047C
:101EC00025E030E030937304209372044FCD1091DD
:101ED0009504812F8F7D843419F0163009F081C06C
:101EE00088E291E00E947E05882309F47AC01630CA
:101EF000B1F481E28093940480919C0490919D04BC
:101F000090937504809374048091A0049091A1042F
:101F1000909377048093760484E190E024CF43E0AB
:101F200060E288E291E00E946605882309F459C0C6
:101F300080917B0410917C0400917D0420917A04AF
:101F4000209374048093750490919504943659F508
:101F500043E460E188E291E00E946605882309F489
:101F600040C080917A0490917B040095101731F065
:101F70009095891719F094E090939404982F812FED
:101F8000909377048093760480E390E09093930499
:101F90008093920485E190E090937304809372049F
:101FA0008EEB9AE070CC902F9095191314C0212FCE
:101FB00030E0309377042093760490E0909375049A
:101FC0008093740480E290E0909393048093920451
:101FD00083E190E0E1CFC801909376048093770489
:101FE000F1CF80919504843279F58CE391E00E94E1
:101FF0007E05882349F143E060E18CE391E00E9493
:102000006605882309F110917A0480917B048095FC
:10201000181719F084E0809394048DE692E00E94F2
:102020008700812F90E0909377048093760410923C
:1020300075041092740480E190E09093930480936F
:1020400092048DE190E08FCE809195048434D1F498
:1020500080E591E00E947E058823A1F043E060E2E4
:1020600080E591E00E946605882361F080E8809316
:10207000940480E290E090939304809392048CE126
:1020800090E071CE84E691E00E947E05882309F4F9
:102090005DC0E0919804F09199048285843209F042
:1020A00055C043E060E184E691E00E946605882324
:1020B00009F44CC0E0919804F0919904EF5AFF4F55
:1020C000808191810297049708F040C080E8809356
:1020D000940490917A0480917B04292F382F482F03
:1020E00042954F708F70A4E036952795AA95E1F739
:1020F0002F70392F3F709FE0942798279227391728
:1021000019F094E890939404609196047091970468
:10211000683F714128F490919404926090939404E4
:102120004093740410927504E0E18E9FC001112465
:10213000822B909377048093760480E190E09093D3
:102140009304809392048AE190E00DCE88E791E0B9
:102150000E947E0590919504882381F1943271F557
:1021600043E060E188E791E00E946605882331F151
:10217000E0919804F0919904EF5AFF4F808191818A
:1021800008970797D8F480917A0490917B04982758
:102190009F3FA1F490E0909377048093760480E1D0
:1021A00090E0909393048093920489E190E090935F
:1021B00073048093720488ED94E065CB809195045C
:1021C000803709F057C041E068E08CE891E00E9458
:1021D0006605882309F44EC080917A0490917B04AF
:1021E000A0917C04B0917D04892B8A2B8B2B09F064
:1021F00041C041E16FE18CE891E00E9466058823CF
:10220000C9F180907A0490907B04A0907C04B090F7
:102210007D044FE461E18CE891E00E94660588232B
:1022200049F190917B0480917C0489279827892724
:10223000909377048093760480927A0490927B0442
:10224000A0927C04B0927D049092750480927404F4
:10225000B0927904A09278048BE190E0909373049B
:102260008093720488E390E09093930480939204A7
:1022700080E852CA20919504243108F428C182E3F1
:10228000F30111928A95E9F74091980450919904CD
:1022900073E060E02250330B872F90E082179307A2
:1022A000BCF4880F991FFA01E80FF91F8385948504
:1022B0008233910508F00BC1F301E80FF91FA081EB
:1022C000AF5FA0836817190608F4682F7E5FE4CF1C
:1022D0001EAA1DAA9E012B5C3F4FAE014A5C5F4FB8
:1022E000C3010E947109882309F4F1C082E3F3015C
:1022F00011928A95E9F7209195042250330B409171
:1023000098045091990474E060E0872F90E0821760
:102310009307BCF4880F991FFA01E80FF91F838512
:1023200094858233910508F0D2C0F301E80FF91FBC
:10233000A081AF5FA0836817190608F4682F7E5F3D
:10234000E4CF1CAA1BAA9E012D5C3F4FAE014C5C42
:102350005F4FC3010E947109882309F4B8C08091BE
:1023600095048695FF24FA94F80ECBA88DA8CC206E
:1023700029F0811003C03EEFF32EF80E2F2D30E030
:102380003093930420939204C901019797FD4F96CF
:1023900025E0959587952A95E1F78FAB811003C0CD
:1023A000CC2009F494C04CA882E3489E200111245B
:1023B000AEA8A89E50011124889E40011124C89EF9
:1023C0006001112483E0282E312C8F2DF0E2FF15BF
:1023D00008F480E29DA9992309F465C021E030E06A
:1023E0003093730420937204E12C82019501A401BF
:1023F000622D0E94C404882309F469C024E0329E3F
:10240000F0011124E657FB4F80917A0490917B04F0
:10241000A0917C04B0917D0480839183A283B383D7
:1024200030E4230E80EEF80E33949FA9931568F6DE
:1024300080ED97E00E948700E0919804F091990464
:102440004585568582E3849F9001859F300D112438
:1024500030937F0420937E0447855089849F9001A8
:10246000859F300D11243093810420938004B09215
:102470008704A092860450928904409288048114B3
:102480009104E1F09092830480928204509285043A
:1024900040928404C114D10409F468CAD09289041A
:1024A000C092880463CAE2E0F0E0F0937304E09322
:1024B0007204E12C86019501A5019ACFB0928304A4
:1024C000A0928204D0928504C09284044FCA809165
:1024D0009504863008F44ACAA0909804B0909904F4
:1024E00011E025EC3DE94CE151E8C82ED12C0AE081
:1024F000812F90E0BC016E5F7F4F6C157D05DCF590
:10250000660F771FF501E60FF71F63857485880F47
:10251000991FF501E80FF91F83859485069FD00167
:10252000079FB00D1124FC01EE0FFF1FEE0FFF1FE0
:10253000EE0FFF1FAE17BF07D0F0089FF001099FF5
:10254000F00D1124CB0163E0880F991F6A95E1F724
:10255000E817F90770F4E2E063E971E080E091E0E8
:102560000E9457139B01AC012E271F5FC1CFE0E0F3
:10257000F3CFE1E0F1CF20937A0430937B044093D2
:102580007C0450937D0480E290E0909393048093C8
:1025900092041092730410927204E8C98115FFEF3F
:1025A0009F07F8E1AF07F7EEBF0791F181159F4F45
:1025B000A641B94E09F0FEC910927E02FBC98115F1
:1025C0003FEF930739E0A30736EFB307D9F040F4A4
:1025D00081159F4FAC40B34F09F0ECC981E015C0A5
:1025E00081152FEF920728E0A20727EFB207A1F08D
:1025F00081159F4FA740B84F09F0DCC980917E023A
:10260000815003C080917E028F5F80937E02D2C989
:1026100082E0FBCF83E0F9CF84E0F7CF823089F40A
:1026200081E08093B4028093D6021092B50210929A
:10263000D7026CE08BE793E00E94740482E090E0A4
:10264000D9C98330C1F481E08093B4028093D6026B
:102650001092B5021092D7026CE08BE793E00E94D3
:10266000740483E090E00E94A3040E94360360E0BB
:1026700070E0CB01C7C9843009F0C6C981E08093FE
:10268000B4028093D6021092B5021092D7026CE089
:102690008BE793E00E94740484E090E00E94A3041E
:1026A0000E94360368EC70E080E090E0ABC9DB018B
:1026B0008F939F930E946713BF91AF91A29F800D4C
:1026C000911DA39F900DB29F900D112408950E941B
:1026D0007213A59F900DB49F900DA49F800D911D26
:1026E00011240895A29FB001B39FC001A39F700D54
:1026F000811D1124911DB29F700D811D1124911D0A
:102700000895AA1BBB1B51E107C0AA1FBB1FA61738
:10271000B70710F0A61BB70B881F991F5A95A9F78A
:1027200080959095BC01CD010895EE0FFF1F059097
:10273000F491E02D0994F894FFCF06002628236831
:1027400010F4012C06F4012602806E006A060500D2
:1027500026E02070100E022A060E020E0200410032
:1027600000001300268011801130029006300230E4
:1027700002006E0000001D002638081C040E022A0C
:10278000060E020E0200320000001C0026220B2260
:102790000BEE026608EE02EE02806E0000001A00E8
:1027A000269E0002049E0029029E000701006E0082
:1027B0000000190026F603BC050802BC050802D477
:1027C00001004B0000001B00261F015D033E023E7E
:1027D000021F015D03806E00000017002860095889
:1027E00002B004580258025802002D0000000400F4
:1027F0002604010C0304011C0704010C03006E00F5
:1028000000000C0025800DC006B0011005B001B01D
:102810000100820000000800260023801130029091
:102820000630023002006E006A06000000006302FB
:10283000C301F001B0022102FF01130200000000F9
:0E28400074044704A8041D0440042D041E0463
:107E0000112484B714BE81FFF0D085E080938100F7
:107E100082E08093C00088E18093C10086E0809377
:107E2000C20080E18093C4008EE0C9D0259A86E02C
:107E300020E33CEF91E0309385002093840096BBD3
:107E4000B09BFECF1D9AA8958150A9F7CC24DD24C4
:107E500088248394B5E0AB2EA1E19A2EF3E0BF2EE7
:107E6000A2D0813461F49FD0082FAFD0023811F036
:107E7000013811F484E001C083E08DD089C08234E0
:107E800011F484E103C0853419F485E0A6D080C0E4
:107E9000853579F488D0E82EFF2485D0082F10E0AE
:107EA000102F00270E291F29000F111F8ED06801E7
:107EB0006FC0863521F484E090D080E0DECF843638
:107EC00009F040C070D06FD0082F6DD080E0C81688
:107ED00080E7D80618F4F601B7BEE895C0E0D1E017
:107EE00062D089930C17E1F7F0E0CF16F0E7DF06D8
:107EF00018F0F601B7BEE89568D007B600FCFDCFD4
:107F0000A601A0E0B1E02C9130E011968C91119780
:107F100090E0982F8827822B932B1296FA010C0160
:107F200087BEE89511244E5F5F4FF1E0A038BF0790
:107F300051F7F601A7BEE89507B600FCFDCF97BE46
:107F4000E89526C08437B1F42ED02DD0F82E2BD052
:107F50003CD0F601EF2C8F010F5F1F4F84911BD097
:107F6000EA94F801C1F70894C11CD11CFA94CF0C13
:107F7000D11C0EC0853739F428D08EE10CD085E9AC
:107F80000AD08FE07ACF813511F488E018D01DD067
:107F900080E101D065CF982F8091C00085FFFCCF94
:107FA0009093C60008958091C00087FFFCCF809118
:107FB000C00084FD01C0A8958091C6000895E0E648
:107FC000F0E098E1908380830895EDDF803219F02E
:107FD00088E0F5DFFFCF84E1DECF1F93182FE3DFCA
:107FE0001150E9F7F2DF1F91089580E0E8DFEE27F6
:047FF000FF270994CA
:027FFE00040479
:00000001FF
